:020000040800F2
:1000000000040020B9010008BB010008BB01000882
:10001000BB010008BB010008BB010008BB010008D0
:10002000BB010008BB010008BB01000815DA00088D
:10003000BB010008BB010008BB0100084FEC000831
:10004000BB010008BB010008BB010008BB010008A0
:10005000BB010008BB01000875360008B536000872
:10006000F5360008393700087D370008BB01000865
:10007000BB010008BB01000819F30008BB01000820
:10008000C1370008BB010008BB010008BB01000824
:10009000BB010008BB010008BB010008BB01000850
:1000A000BB010008BB01000805EF000819EF0008BC
:1000B000BB010008BB010008BB010008BB01000830
:1000C0006DEC000861380008BB0100081539000814
:1000D000BB010008BB010008BB010008BB01000810
:1000E00072B6264880F30888254880F30988254899
:1000F00025490860022080F31488BFF36F8F0DF04C
:10010000A3F90CF07FFF4FF0553020491B4A914274
:100110003CBF41F8040BFAE71D49194A91423CBF24
:1001200041F8040BFAE71B491B4A1C4B9A423EBF9D
:1001300051F8040B42F8040BF8E700201849194A5B
:1001400091423CBF41F8040BFAE70DF081F90DF044
:100150007CF9154C154DAC4203DA54F8041B884762
:10016000F9E707F085FE124C124DAC4203DA54F861
:10017000041B8847F9E70DF069B90000000400206E
:10018000000C00200000000808ED00E00000002046
:1001900000040020AC170108000C0020CC10002047
:1001A000D0100020C03C0020E0000008E000000863
:1001B000E0000008E000000892E700F000F8FEE729
:1001C0002DE9F04FC1F80CD0C3689D46BDE8F08F13
:1001D000002383F311882846A04700200DF04EFB32
:1001E000FEE70DF07FFA00DFFEE7000053B94AB9E1
:1001F000002908BF00281CBF4FF0FF314FF0FF302F
:1002000000F076B9ADF1080C6DE904CE00F006F807
:10021000DDF804E0DDE9022304B070472DE9F04782
:10022000089E0D4604468846002B4DD18A429446CE
:1002300068D9B2FA82F252B101FA02F3C2F1200196
:1002400020FA01F10CFA02FC41EA030894404FEA5B
:100250001C41B8FBF1F71FFA8CFE01FB178807FB66
:100260000EF0230C43EA084398420AD91CEB03031F
:1002700007F1FF3580F01E81984240F21B81023F5A
:1002800063441B1AB3FBF1F001FB103300FB0EFEBD
:10029000A4B244EA0344A6450AD91CEB040400F1C5
:1002A000FF3380F00981A64540F20681644402389C
:1002B0000021A4EB0E0440EA07401EB10023D44005
:1002C000C6E90043BDE8F0878B4208D9002E00F054
:1002D000EE800021C6E900050846BDE8F087B3FAC4
:1002E00083F100294AD1AB4202D3824200F2FC8062
:1002F000841A65EB030301209846002EE2D0C6E97C
:100300000048DFE702B9FFDEB2FA82F2002A40F0CD
:100310009180A1EB0C0001214FEA1C471FFA8CFED3
:10032000B0FBF7F307FB1300250C45EA00450EFB75
:1003300003F0A84208D91CEB050503F1FF3802D2EF
:10034000A84200F2CE8043462D1AB5FBF7F007FB1A
:1003500010550EFB00FEA4B244EA0544A64508D998
:100360001CEB040400F1FF3502D2A64500F2B68072
:100370002846A4EB0E0440EA03409EE7C1F12007A3
:100380008B4022FA07FC4CEA030C25FA07FA4FEAE5
:100390001C49BAFBF9F820FA07F309FB18AA8D40AB
:1003A0001FFA8CFE1D4300FA01F308FB0EF02C0C23
:1003B00044EA0A44A04202FA01F20BD91CEB0404FD
:1003C00008F1FF3A80F08880A04240F28580A8F1D1
:1003D00002086444241AB4FBF9F009FB104400FB42
:1003E0000EFEADB245EA0444A64508D91CEB040450
:1003F00000F1FF356CD2A6456AD90238644440EA60
:100400000840A0FB0295A4EB0E04AC42C846AE46E1
:1004100056D353D0002E69D0B3EB080264EB0E0420
:1004200022FA01F304FA07F71F43CC40C6E900742F
:10043000002147E70CFA02FCC2F1200125FA01F382
:100440004FEA1C4720FA01F195400D43B3FBF7F149
:1004500007FB11331FFA8CFE280C40EA034001FB16
:100460000EF3834204FA02F408D91CEB000001F1F8
:10047000FF382FD283422DD902396044C01AB0FB15
:10048000F7F307FB1300ADB245EA004503FB0EF09E
:10049000A84208D91CEB050503F1FF3816D2A84283
:1004A00014D9023B6544281A43EA014138E7314632
:1004B000304607E72F46E4E61846F9E64B45A9D251
:1004C000B9EB020865EB0C0E0138A3E74346EAE7F7
:1004D000284694E74146D1E7D0467BE7644402389A
:1004E00047E7023B65442FE7084606E73146E9E661
:1004F000704700BF062008B500F0E0FA01200EF0BA
:10050000EFF900BF024B0146186800F06DB900BF5B
:10051000000C0020024B0146186800F0FFB800BF35
:10052000000C0020032A10B516D940EA010C1CF07B
:10053000030F04460B4622D119462046D1F800E0AD
:10054000D0F800C00433F44504F1040417D1043A90
:10055000032A20461946EFD8541EA2B100F1FF3CF1
:10056000013901E0C3180CD01CF801EF11F8012F7C
:10057000A4EB0C039645F5D0AEEB020010BD541E63
:10058000ECE7184610BD104610BD00BF844641EA96
:10059000000313F0030349D1403A23D30B680360EF
:1005A0004B6843608B688360CB68C3600B690361F1
:1005B0004B6943618B698361CB69C3610B6A0362D9
:1005C0004B6A43628B6A8362CB6AC3620B6B0363C1
:1005D0004B6B43638B6B8363CB6BC36340304031A6
:1005E000403ADBD230320BD30B6803604B68436078
:1005F0008B688360CB68C36010301031103AF3D23F
:100600000C3205D351F8043B40F8043B043AF9D2CC
:10061000043208D0D2071CBF11F8013B00F8013B9F
:1006200001D30B8803806046704700BF082A13D3AC
:100630008B07B1D010F00303AED0C3F10403D21A7C
:10064000DB071CBF11F8013B00F8013BA4D331F8D4
:10065000023B20F8023B9FE7043AD9D3013A11F854
:10066000013B00F8013BF9D20B7803704B784370E3
:100670008B78837060467047830730B548D0541E2E
:10068000002A3FD00346CAB201E0013C3AD303F846
:10069000012B9D07F9D1032C2DD9CDB245EA0525B3
:1006A0000F2C45EA054536D9A4F1100222F00F0CB3
:1006B00003F1200EE6444FEA121C03F1100242E956
:1006C000045542E9025510327245F8D10CF101028D
:1006D00014F00C0F03EB021204F00F0C13D0ACF16A
:1006E000040323F003030433134442F8045B9342EE
:1006F000FBD10CF003042CB1CAB21C4403F8012B4B
:100700009C42FBD130BD64461346002CF4D1F9E77E
:1007100003461446BFE71A46A446E0E7002952D034
:1007200038B551F8043C0C1F002BB8BFE41805463F
:1007300000F0F0FA2B4A1368002B45D0A3420CD9E5
:1007400021686018834228D0636028461460BDE8A1
:10075000384000F0E1BAA3420FD81A465B68002B7C
:10076000F9D11168501884421DD034D363605460AD
:100770002846BDE8384000F0CFBA11685018A042B2
:1007800015D028D8216860188342EFD118685B68BB
:100790000144C4E900135460EAE718685B68014447
:1007A000C4E90013D1E7236819441160E0E7206829
:1007B0000144501883421160DAD1D3E900030144A7
:1007C000C2E90013D4E77047284663601460BDE8AF
:1007D000384000F0A1BA0C2328462B60BDE8384011
:1007E00000F09ABAD0100020F8B5CD1C25F0030512
:1007F00008350C2D38BF0C25002D064623DBA942F9
:1008000021D8264F00F086FA3A6822B3144603E056
:1008100063682246FBB11C4623685B1BF8D40B2B94
:1008200015D8636894420CBF3B605360304600F0BB
:1008300073FA04F10B00231D20F00700C21A01D047
:100840001B1AA350F8BD0C2300203360F8BD2360B1
:100850001C442560EAE77968D1B1294630460EF09C
:1008600023F8431C01460CD0C41C24F00304A0420E
:1008700005D03046611A0EF017F8013001D025601E
:10088000D4E70C233046336000F046FA0020F8BD70
:1008900030460EF009F87860DFE700BFD010002086
:1008A00038B5124B04461D68AA6B1AB10023C2E981
:1008B000044338BD1820FFF725FE0246A86378B12F
:1008C00000210B2301209381C2E90401084B09494F
:1008D000094DC2E9011300231560C2E9044338BD84
:1008E0004221064B064800F0CDF900BF000C002065
:1008F000ECDE050034126DE60E33CDABDC160108DC
:10090000F416010838B5194B1C68A26B8AB113693B
:100910001749546903FB01F1164800FB0411A3FBBE
:100920000030013341EB0001C2E9043121F0004005
:1009300038BD1820FFF7E6FD0246A06388B1012408
:1009400000250B230A480C49C2E904451160014601
:100950000A4D0B4C93810B4BC2E90154C2E904319F
:1009600038BD4E21084B094800F08CF9000C0020DE
:100970002DF451582D7F954C0E33CDAB34126DE6CE
:10098000ECDE05002E7F954CDC160108F4160108FC
:1009900038B5446C0CB1002038BD80210546FFF706
:1009A00023FF0246686430B1031F7C3243F8044FD2
:1009B0009342FBD1EFE74FF0FF3038BD1F29F8B568
:1009C000054608D8466C0C4617464EB156F824002A
:1009D00046F82470F8BD16234FF0FF302B60F8BDA9
:1009E0008021FFF701FF0646686440B10021031F24
:1009F00000F17C0543F8041F9D42FBD1E6E74FF070
:100A0000FF30F8BD1F2938B5054620D8426C0C468A
:100A10006AB152F8213053B1012B16D0591C10D0B5
:100A20000025204642F824509847284638BD2846DD
:100A300000F0F8F8224601462846BDE8384000F0AC
:100A4000DDB8162301202B6038BD002038BD1623E9
:100A50004FF0FF302B6038BD1F292BD8426C38B5C2
:100A60000C46054682B152F8243002EB84024BB1A9
:100A7000591C1AD0012B16D0002520461560984726
:100A8000284638BD012038BD8021FFF7ADFE024663
:100A9000686460B10020131F02F17C0143F8040F69
:100AA0009942FBD1DFE7032038BD022038BD4FF06B
:100AB000FF3038BD4FF0FF30704700BF38B5144BE2
:100AC0001F281D681FD86A6C044662B152F8203096
:100AD0004BB1012B15D0591C0FD0002542F82050E6
:100AE0009847284638BD284600F09CF82246014623
:100AF0002846BDE8384000F081B8162301202B605D
:100B000038BD002038BD16234FF0FF302B6038BDB4
:100B1000000C0020124B1F2870B51E6808D80D4627
:100B2000716C044649B151F8240041F8245070BD5D
:100B300016234FF0FF30336070BD80213046FFF741
:100B400053FE0146706440B10022031F00F17C0C8B
:100B500043F8042F6345FBD1E5E74FF0FF3070BD4C
:100B6000000C002038B50B4B1D686C6C0CB10020DC
:100B700038BD80212846FFF737FE686438B1031F6F
:100B800000F17C0243F8044F9342FBD1EFE74FF0B2
:100B9000FF3038BD000C002038B5174B1F281D68EA
:100BA00027D86A6C044682B152F8243002EB8402E2
:100BB0004BB1591C1BD0012B17D0002520461560C6
:100BC0009847284638BD012038BD80212846FFF7C8
:100BD0000BFE0246686460B10020131F02F17C0125
:100BE00043F8040F8B42FBD1DEE7032038BD02201F
:100BF00038BD4FF0FF3038BD000C002070B5002626
:100C0000074D0446084611462E600DF071FE431C48
:100C100000D070BD2B68002BFBD0236070BD00BFDF
:100C2000D81000200DF06CBE20F0030110F003007E
:100C3000C0F1000051F8043B00F1040C4FEACC0C69
:100C40006FF000021CBF22FA0CF213434FF0010CAC
:100C50004CEA0C2C4CEA0C4CA3EB0C0222EA0302EB
:100C600012EACC1204BF51F8043B0430F4D0C2F1B4
:100C7000000102EA0102B2FA82F2C2F11F0200EBA5
:100C8000D2007047144600B51A460A4B0D461B6841
:100C900085B0DE6803464CB10749019130460749EB
:100CA0000294009500F022F8FFF724FC04490C465A
:100CB000F3E700BF000C00202817010838170108CF
:100CC0003417010808B513460022FFF7DBFF00BF09
:100CD0000CB400B583B004AB53F8042B019300F0BF
:100CE00057F803B05DF804EB02B070470EB400B5DE
:100CF000074A82B003AB0146106853F8042B0193F6
:100D000000F046F802B05DF804EB03B0704700BF96
:100D1000000C0020704700BF704700BF9368013B84
:100D2000002B936005DAD2F818C0634507DB0A2967
:100D300005D01368581C106008461970704700F001
:100D400069BB00BF9BB1F8B5134406460F46541E5D
:100D50005D1E01E0AC4208D03A46304614F8011F4F
:100D6000FFF7DCFF431CF5D1F8BD0020F8BD0020E3
:100D7000704700BF936810B5144613B91846536006
:100D800010BD00F031FE0023C4E9013310BD00BFE7
:100D90002DE9F04F0E4692461C4607469FB018B10B
:100DA0008369002B00F0A880954B9E4200F0AA803A
:100DB000944B9E4200F0B580934B9E4208BFFE6864
:100DC000B389180740F1A3803369002B00F09F809E
:100DD000002320220B9330239AF80010059401255C
:100DE0008A4C8DF831208DF8323000297DD0D146E3
:100DF0000B4604E019F8013F002B00F09480252BEE
:100E0000F8D1B9EB0A0B40F0918099F80030002B33
:100E10006BD000234FF0FF3209F10109CDE9072320
:100E2000069309938DF85B301C9304E0001B05FAD0
:100E300000F018430690CA460522204619F8011B07
:100E400001F01CF8069B0028F0D1D90644BF2022EF
:100E50008DF85B201A0748BF2B229AF8001048BF74
:100E60008DF85B202A2972D1059A11680432002975
:100E70000592C0F2A08009919AF801100AF1010AC6
:100E80002E2976D0DFF888910322484600F0F6FF3D
:100E900048B14022069BA0EB090002FA00F0034390
:100EA0000AF1010A06931AF8011B062259488DF827
:100EB000301000F0E3FF002800F08380564B002B39
:100EC0006CD005A9009132463846544B06A9AFF3C1
:100ED00000800390039B013307D00B9B039A9AF881
:100EE000001013440B93002981D1B3895B0615D4FC
:100EF0000B981FB0BDE8F08F00F056FD404B9E42AE
:100F00007FF456AF7E68B38918073FF55DAF314671
:100F1000384600F0E1FA00283FF45AAF4FF0FF30B6
:100F2000E7E7BE684CE7B9EB0A0BDED0D046CAF162
:100F3000010A03E0934538D918F8011F32463846B4
:100F4000FFF7ECFE01300AEB0802F3D1CDE7A1F187
:100F50003002092A94D8099B1AF8011F03EB830376
:100F600002EB4303A1F13002092AF5D92E29099396
:100F700088D19AF801102A292DD1059B0AF1020087
:100F80001A680433002A0593B8BF4FF0FF339AF86C
:100F9000021007928246B8BF079373E7059B073399
:100FA00023F007030833059397E70B9A99F800306D
:100FB0005A440B922BE7494243F0020309910693EE
:100FC0005AE705A9009132463846144B06A900F0AD
:100FD000CBF803907EE70023A1F13002092A0AF141
:100FE000010A07933FF64EAF1AF8011F03EB830384
:100FF00002EB4303A1F13002092AF5D9079341E737
:1010000014080108F4070108D4070108681701084B
:10101000701701087417010800000000450D000852
:101020008C4600B586461346034A714610685DF843
:1010300004EB6246FFF7ACBE000C00202DE9F04740
:1010400091461E460A698B680C469A42B8BF1A46FA
:10105000C9F8002091F843300546DDF8208013B12F
:101060000132C9F80020226891065DD5D9F8003018
:101070000233C9F80030226812F0060F11461ED163
:10108000E168CB1A002BD8BF114618DD002704F108
:10109000190A06E0D9F80030E268A2EB030CBC455F
:1010A0000CDD0123524631462846C047013007F186
:1010B0000107EFD14FF0FF30BDE8F087216894F8C9
:1010C0004330003B18BF01238A060AD53021E218BD
:1010D00082F8431094F845105A1C2244023382F8D7
:1010E00043103146284604F14302C0470130E1D0A5
:1010F000236803F00603042B1DD0A36822699342E2
:1011000025DD00279B1A1F4404F11A09002401E081
:10111000BC421CDA01234A4631462846C04701300A
:1011200004F10104F4D1C5E712F0060F12D0003B20
:1011300018BF0123D5E7D9F80030E1682269C91A40
:10114000A36821EAE1779342DCDC0029DCDC0020A3
:10115000BDE8F087E168D9F80030CB1A002BD8BF82
:10116000114693DCABE700BF2DE9F04317460A7E3A
:1011700085B00C46064698460C9D01F1430C002AAA
:1011800033D0A2F15803D9B2202967D8202B65D8D3
:10119000DFE813F0DD0064006400640064006400B4
:1011A00064006400640064006400A3006E006400D6
:1011B0006400640064006E00640064006400640005
:1011C00021007F00BF0064006400AE0064007F0067
:1011D00064006400E40023681A0640F102812B6871
:1011E0006269191D29601B681A600023E1462361AA
:1011F0003B4621463046CDF8008003AAFFF71EFF8C
:10120000013020D04A46394630462369C047013074
:1012100019D02368E0689B07039919D5431A002B5E
:1012200016DD002504F1190904E0E0680399431A6A
:10123000AB420DDD01234A4639463046C0470130F6
:1012400005F10105F1D14FF0FF3005B0BDE8F083A5
:101250008842B8BF084605B0BDE8F083012384F892
:10126000422004F142092361002384F84330BFE7A0
:101270002368190602D45A0600F1BF8029680A685B
:10128000043129601146002A6ADB0A25DFF87CE177
:1012900010E02368180640F19A802B68191D296018
:1012A00019686F2A0CBF08250A25DFF860E10023C2
:1012B00084F843306268002AA2607DDB236823F053
:1012C00004032360002959D1002A77D1E146082D73
:1012D00063D0ACEB090323618AE701222B6804F198
:1012E0004209196804332B6084F842102261BBE77D
:1012F0002B6800211A1D2A60D3F8009062684846C6
:1013000000F0BCFD00287FD0A0EB090060602061E8
:10131000AAE7236843F0200323607822DFF8F0E097
:1013200084F845202A68111D2960190642D45D06FB
:1013300040D51188D80744BF43F02003236000291B
:1013400043D12368102523F020032360AFE75823FF
:10135000DFF8B8E084F845302368E3E72368DCE78A
:101360002D2284F8432062684942002AA26002DBF1
:1013700023F0040323600A25DFF890E0E146B1FB87
:10138000F5F30A4605FB131019461EF80030AA4271
:1013900009F8013DF3D2082D9BD12368D90798D5D0
:1013A000626823699A4294DC302309F1FF3989F895
:1013B00000308EE71168BDE70029DFD19EF80030CC
:1013C00004F1420984F8423081E710256FE713F0F9
:1013D000400F2B6803F1040129600CBF19681988BC
:1013E0005FE713F0400F2B68626903F10401296085
:1013F0001B6814BF1A801A60F7E62A68B2F9001059
:1014000004322A600A463EE7606880E77C170108DC
:1014100090170108F8B506460D46144608B18369D1
:1014200043B3254B9C422AD0244B9C4229D0244BC9
:101430009C4208BFF468A269A389A2601A0722D55A
:10144000236903B322686169D31AEDB299422F462A
:1014500029DD0133A1680139A160511C216015709B
:1014600062699A4216D0A389DB0701D50A2D11D0F3
:101470003846F8BD00F098FA0F4B9C42D4D17468FE
:10148000D9E7B468D7E72146304600F025F838B9E7
:101490002369D7E72146304600F024F90028E7D039
:1014A0004FF0FF37E4E72146304600F01BF90028F3
:1014B000F6D101232268CDE714080108F4070108DA
:1014C000D407010803460A46024908681946FFF78F
:1014D000A1BF00BF000C00203C4B70B51D68064644
:1014E0000C460DB1AB69E3B1394B9C421FD0394B6F
:1014F0009C424DD0384B9C4208BFEC68B4F90C308C
:1015000018079AB219D5216911B312F001002FD032
:1015100000256069A5604042A06100292ED000200E
:1015200070BD284600F040FA294B9C42DFD16C6820
:10153000B4F90C3018079AB2E5D4D1063ED552075B
:1015400028D4216943F00803A3819AB20029DCD191
:1015500002F42070B0F5007FD7D02146304600F06D
:10156000FFFBB4F90C3021699AB212F00100CFD11F
:10157000950758BF6069A0600029D0D1120658BFF6
:101580000846CDD543F040034FF0FF30A38170BD36
:10159000AC68B3E7616B51B104F14402914204D0ED
:1015A0003046FFF7BBF8B4F90C300022626300222A
:1015B000216923F02403C4E90012C3E7092243F0A0
:1015C000400332604FF0FF30A38170BD000C00205B
:1015D00014080108F4070108D4070108F8B58B893D
:1015E0000C46190707463BD46268002A55DDE66AB7
:1015F000002E50D000223D683A6013F4805250D142
:1016000001233846216AB047421C5CD0A389E66AB0
:101610005B0705D56368C01A636B0BB1236CC01AF6
:101620000246216A00233846B047411C3BD13B6843
:10163000002B38D01D2B01D0162B4BD10023226953
:10164000C4E90023616B3D6029B304F1440399426E
:1016500002D03846FFF762F8002318466363F8BDEE
:101660002669C6B19A0718BF0023256808BF6369B9
:101670002660AD1BA3600CE02B463246D4F828C090
:101680003846216AE047B0F1000CA5EB0C05664432
:1016900012DD002DF0DC0020F8BD226C002AA6DC53
:1016A000F9E7606DB4E70022236962602360A389D3
:1016B000DB04C7D56065C5E7A3894FF0FF3043F071
:1016C0004003A381F8BD3B68002B9FD01D2B06D0A3
:1016D000162B04D0A38943F04003A381F8BD00205A
:1016E0003D60F8BD38B50B69BBB10C46054608B185
:1016F0008369B3B10D4B9C4211D00D4B9C4213D06A
:101700000C4B9C4208BFEC68B4F90C302BB121465D
:101710002846BDE83840FFF761BF002038BD6C683F
:10172000F2E700F041F9E5E7AC68EDE714080108DD
:10173000F4070108D407010838B540B3036904462B
:10174000E3B1174B1D680DB1AB69CBB1154B9C4292
:101750000FD0154B9C4221D0144B9C4208BFEC6823
:10176000B4F90C3053B121462846BDE83840FFF7A4
:1017700035BF6C68B4F90C30002BF4D1002038BDB3
:10178000284600F011F9074B9C42E2D1F1E7084BE3
:1017900008491868BDE8384000F0BEBAAC68DFE719
:1017A000000C002014080108F4070108D407010800
:1017B000D0070108E516000800207047014900F035
:1017C000ABBA00BFE516000800207047682270B56C
:1017D0004D1E02FB05F50E4605F17401FFF704F8F6
:1017E000044640B100210C30C4E9016005F16802F3
:1017F0002160FEF741FF204670BD00BF274B2DE959
:10180000F0411E680746B36953B34FF004084836E9
:10181000D6E90134013B04D51EE05A1C04F16804EA
:101820001AD0B4F90C50013B002DF6D11C4B082204
:101830002946C4E90055C4E90253C4E90455656664
:10184000A56104F15C00FEF717FFC4E90D55C4E97A
:1018500012552046BDE8F08135682DB12E46D7E7F8
:10186000304600F01FF8D0E74FF4D6713846FEF747
:10187000BBFF044668B1056029460546C0F80480F0
:101880000C304FF4D072A060FEF7F6FE34602E46A6
:10189000BEE70C2330603B60DBE700BFD0070108E8
:1018A0000100FFFF0023334A2DE9F0471268C0E929
:1018B00012339042036508BF01232F4908BF83619B
:1018C00081620546FFF79AFF034628466B60FFF7E3
:1018D00095FFA86028460024FFF790FF04236E6858
:1018E000DFF898A0DFF89890DFF89880264FE8603E
:1018F0000822F3602146C6E90044C6E90444746640
:10190000B460B46106F15C00FEF7B6FE1F4BC6E999
:10191000086AC6E90A983763AE680822F360214670
:10192000C6E90044C6E904447466B460B46106F1D3
:101930005C00FEF7A1FE164BC6E9086AC6E90A98E4
:101940003763EE682146F3600822C6E90044C6E921
:1019500004447466B460B46106F15C00FEF78CFE6A
:101960000123C6E9086AC6E90B87C6F82890AB616F
:10197000BDE8F087D0070108BD1700085520000812
:101980007D200008BD200008DD20000809000100BE
:1019900012000200024B0349186800F0BDB900BFF5
:1019A000D0070108E5160008836903B97AE7704794
:1019B000704700BF704700BF704700BF704700BF4F
:1019C000024B0349186800F087B900BF000C0020E3
:1019D000B9170008024B0349186800F07DB900BF31
:1019E000000C0020C91700089368002B00F0B78096
:1019F0002DE9F04FB1F90C300C4619078046174617
:101A000083B098B225D523691BB310F002033D685B
:101A10002DD04FF0000B5E46DFF8B8A2002E00F08C
:101A20008B80564533465A4628BF53464046216A66
:101A3000D4F828C0E047002840F38780BB6883447F
:101A40001B1A361ABB60002BE8D1002003B0BDE89A
:101A5000F08F21464046FFF73FFD002840F03681D9
:101A6000B4F90C303D6898B210F00203D1D110F0F7
:101A7000010976D14E46002E5AD08205D4F808B01E
:101A800040F1B580B3455A4600F2CD8010F4906F16
:101A900000F0CB8023682169A3EB010B636903EBA2
:101AA000430A0AEBDA7A0BF101034FEA6A0A33447C
:101AB0005345524684BF9A465246430540F1EA8058
:101AC00011464046FEF790FE002800F0F9805A4685
:101AD00021690190FEF75AFDA289019B22F49062D0
:101AE00042F08002A28103EB0B0023613246AAEB95
:101AF0000B03B346C4F814A0A3602060B2460026CE
:101B00004946019200F002FAA3682168019AA3EB0A
:101B10000B030A44A3602260B868D144A0EB0A001A
:101B2000B860002891D0B4F90C0080B2002EA4D186
:101B3000D5E9009608359EE7D5E900B608356DE78A
:101B400021464046FFF7CEFD80B3B4F90C304FF08C
:101B5000FF3043F04003A38103B0BDE8F08F0020C5
:101B600070471E46AA46994618461D4656B3002899
:101B700032D04A4620682169B24228BF32468842A4
:101B8000636904D9A16803EB010B5A4574DC9342E5
:101B900065DC2A464046216AD4F828C0E047B0F107
:101BA000000BD2DDB9EB0B09CAD00120BB685D4444
:101BB000A3EB0B03A6EB0B06BB60002B3FF445AF7A
:101BC000002ED4D10AF1080353F8046C9A4653F856
:101BD000085C0833002EF7D032460A21284600F070
:101BE0004DF9002869D00130A0EB0509C1E7206854
:101BF000236998421BD86369B34218D86FF0004C30
:101C0000B44528BFB4469CFBF3FC4A4603FB0CF3E7
:101C10004046216AD4F828C0E047B0F1000A94DDBC
:101C2000A6EB0A0678E7B3463246206866E7B34576
:101C3000DA4628BFB2464946524600F067F9A36823
:101C40002268A3EB0A035244A3602260002BE7D171
:101C500021464046FFF746FD0028E1D075E72946BA
:101C60009346019200F052F9A368019A9B1AA3606F
:101C700023681A44226095E729465A4600F046F93F
:101C8000236821465B4440462360FFF72BFD002874
:101C900088D05AE7404600F0B5F9034600287FF4A3
:101CA00022AF40462169FEF739FD0C22B4F90C3011
:101CB000C8F8002023F0800349E7721C914659E7D9
:101CC0000C22B4F90C30C8F8002040E74FF0FF3088
:101CD000BCE600BF00FCFF7F2DE9F04100268846EE
:101CE00000F14807D7E90154013D0ED4A389013D15
:101CF000012B06D9B4F90E30013302D02046C0477B
:101D000006436B1C04F16804F0D13F68002FE9D151
:101D10003046BDE8F08100BF2DE9F8434FF00009DF
:101D20000746884600F14806D6E90154013D10D423
:101D3000A389013D012B08D9B4F90E30013304D039
:101D400021463846C04749EA00096B1C04F1680483
:101D5000EED13668002EE7D14846BDE8F88300BFD3
:101D6000F0B58B890C46990797B007D5012204F18D
:101D70004703C4E90432236017B0F0BDB4F90E1074
:101D8000054600292DDB6A460CF09BFD002827DB69
:101D9000019E4FF4806706F47046A6F50056B6FA29
:101DA00086F6394628467609FEF71EFD30B3A3892C
:101DB0001A4A43F08003AA62C4E90407A3812060A1
:101DC000002ED9D02846B4F90E100CF086FD00285C
:101DD000D2D0A38923F0030343F00103A381CBE70F
:101DE000A38913F0800F14BF40274FF48067284663
:101DF00039460026FEF7F8FC0028D8D1B4F90C309B
:101E00009A05B9D4012123F0030304F1470243F0FA
:101E10000203C4E90421A3812260ADE7BD170008D5
:101E200070B50C46B1F90E10164600291D4696B045
:101E300013DB6A460CF045FD00280EDB01994FF4D8
:101E4000806301F47041A1F50051B1FA81F10020E5
:101E500049092960336016B070BD0022B4F90C3016
:101E60002A601B0604D540230020336016B070BDE5
:101E70004FF480630020336016B070BD5FFA81FCC0
:101E8000810710D00346511E2AB90AE09A07184666
:101E90000AD0013905D3184613F8012B6245F5D154
:101EA000704700207047114603290CD80029F8D04C
:101EB0000346014401E08B42F3D0184613F8012B8E
:101EC0006245F8D1ECE7024610B54CEA0C2444EA2E
:101ED00004441046036804326340A3F1013E2EEA35
:101EE000030313F0803F04D1043903291046F0D8CE
:101EF00051B10346014401E08B4205D0184613F866
:101F0000012B6245F8D110BD002010BD88420DD9CB
:101F10008B1883420AD900EB020CBAB1624613F85F
:101F200001CD994202F801CDF9D170470F2A0ED8A0
:101F3000034602F1FF3C4AB10CF1010C013B8C4419
:101F400011F8012B614503F8012FF9D1704740EAE0
:101F500001039B074FD1A2F1100370B501F1200CD2
:101F600023F00F0501F1100E00F11004AC441B0921
:101F70005EF8105C0EF1100E44F8105C5EF81C5C0C
:101F8000103444F81C5C5EF8185C44F8185C5EF889
:101F9000145CE64544F8145CEAD1013312F00C0FEE
:101FA00001EB031102F00F0400EB031327D08E4660
:101FB000043C24F003064FEA940C1E441C1F5EF8F8
:101FC000045B44F8045FB442F9D10CF1010402F05F
:101FD000030203EB840301EB840102F1FF3C4AB1ED
:101FE0000CF1010C013B8C4411F8012B614503F805
:101FF000012FF9D170BD034602F1FF3C9CE7224658
:10200000EBE700BFF8B51446F9B1CAB106460D4674
:1020100000F068F8A04202D32F463846F8BD2146AA
:102020003046FEF7E1FB07460028F6D02246294657
:10203000FEF7ACFA30462946FEF770FB3846F8BD8D
:102040002746FEF76BFB3846F8BD1146BDE8F84061
:10205000FEF7CABB10B50C46B1F90E100CF019FC16
:10206000002803DB636D0344636510BDA38923F47B
:102070008053A38110BD00BF002070472DE9F041BF
:102080000C46B1F90C101F46CB05054616460BD47D
:1020900021F48051A1813B4632462846B4F90E1006
:1020A000BDE8F0410CF0FCBBB4F90E100223002295
:1020B0000CF0F4FBB4F90C10EAE700BF10B50C46C5
:1020C000B1F90E100CF0EAFBA389421C0EBF23F4F9
:1020D000805343F480536065A38110BDB1F90E10A5
:1020E0000CF0E0BB51F8040C0028A0F10400BCBFC8
:1020F0000B58C018704700BF0F4A0023114610B597
:10210000147C844211D11C225343CA18906858B1E0
:10211000CB58FF281FBF58434000013050604FF09C
:10212000010004BF0133536010BD01330A2B02F1DB
:102130001C02E5D10020F7E7200E0020F0B50A4E82
:1021400000253446377C874207D11C2000FB054020
:102150000176427683760120F0BD01350A2D06F125
:102160001C06EFD10020F7E7200E0020094A30B509
:1021700000231446157C854205D11C22012002FB58
:102180000343996030BD01330A2B02F11C02F1D1E7
:102190000020F7E7200E0020094A30B5002314463E
:1021A000157C854205D11C22012002FB03435960A6
:1021B00030BD01330A2B02F11C02F1D10020F7E7F8
:1021C000200E002070B50B4C00232546267C86424D
:1021D00009D11C204343E818E95000238260C36002
:1021E0004374012070BD01330A2B04F11C04EDD1AE
:1021F0000020F7E7200E002070B500252E462B4C5E
:102200006368002B4FD0E06808BB637CB3FA83F3AC
:102210005B0963740AF0A6FBD4E900239342E060F3
:102220002BD266606674E66063690BB1207C9847C8
:10223000207CFF2824D100221146104608F0FCFA29
:102240000735462D04F11C04DAD1012070BD0AF0D7
:10225000CDFB23689842D8D26368002BE4D0204697
:1022600002F05AFE0028EBD0637C207CB3B1FF283B
:102270000CD1A27E617E207EE0E79B1A6360EBE7D3
:102280003128DDD800231A46194604E03128D7D872
:10229000A37E627E217E07F043FCD1E7FF28CAD0EF
:1022A0003128CDD8EFE76374E360C9E7200E002042
:1022B00007B543788DF8003083788DF80130C37806
:1022C0008DF8023043798DF80330037968468DF834
:1022D00004300EF0EFF803B05DF804FB08B5074BCF
:1022E0005A78032A07D858680AF080FBC72894BF99
:1022F0000020012008BD0020FCE700BFA40C002046
:102300007047002280214FF0804008B50CF069FC36
:10231000FFF7F6FF00BF00BF00BF00BF00BF00BF58
:1023200000BF00BF00BF00BF00BF00BF00BF00BFB5
:1023300000BF00BF00BF00BF08BD08B501F05AFBD9
:1023400008BD000008B5054C20780DF0ABFB2078E7
:10235000FFF7F3FF05200BF096FAF5E73039002080
:102360000B4B10B51B780B4C23B94FF480732380B3
:102370000123A370E37843F00E03E3700AF0F2FA4E
:10238000054B18602068BDE8104005F0D0B800BFCC
:10239000ED10002030390020E010002010B5064C70
:1023A0000122204602210CF01CFC0223A361BDE89F
:1023B000104001F0C5BB00BF000400400120704781
:1023C000144B10B51C78BCB9134B1B78042B13D1DC
:1023D00004F09AFF04F0AEFF04F060FF04F0DAFFAF
:1023E00006F0B6F906F0D0F920460AF051F9204679
:1023F000BDE810400AF068B90EF060F848B10DF081
:1024000047FB0028FBD1BDE810404CF250300BF0E8
:102410003ABA10BD303900206C3C002038B500239A
:102420000C46084D0B7030B10AF09CFA002328606E
:102430002370002038BD28680AF0D8FA3228F3D873
:10244000F7E700BFF01000200C4A9378012B0FD063
:10245000022B11D033B90A4B1B781BB9094B1B78DF
:10246000042B09D1084B1868B0FA80F04009704776
:1024700050780128F6D170470120FCE7A40C002019
:10248000303900206C3C00205812002008B5054B64
:102490009B78013B012B02D9FFF7D6FF08BD012035
:1024A000FCE700BFA40C002008B50AF05BFA014B62
:1024B000986008BDA40C002010B50B4C2378207048
:1024C00063700AF04FFA6060FFF7EEFF00F072FEF3
:1024D0000022064B1A70237823B9BDE81040532020
:1024E0000DF068BF10BD00BFA40C0020EC10002050
:1024F000F8B50C461546074660B300293FD0884220
:1025000001D0FFF75DFF584E3378013B012B04D813
:102510000320FFF7D1FF0023B370544E3378A3425A
:1025200000D11DB10022524B9A619A83347024B1BC
:10253000631E042B747098BFB470306804F0F7FF0A
:102540003378062B00F28980DFE803F0852A4650B5
:102550005A646E000029D6D00222464B464E9A613C
:102560003378012BCDD030460CF01AFB30460BF0FF
:10257000E5FE4248424B83600AF056F8C1E74FF44B
:1025800000323C4B3C489A610378042BB9D03D4B58
:102590003A4E19703C4BB3600AF08EFC3046EBE7C4
:1025A000312075B10DF006FF52200DF003FF012020
:1025B0000DF00CFF4EF27A4143F22D400DF05CFF1E
:1025C00051200DF0F7FEFFF76FFF2A4621463846EF
:1025D00001F0F2FE0120F8BD3220002DF1D00DF007
:1025E000E9FE52200DF0E6FE0220E1E73320002D47
:1025F000E7D00DF0DFFE52200DF0DCFE0320D7E720
:102600003420002DDDD00DF0D5FE52200DF0D2FE8D
:102610000420CDE73520002DD3D00DF0CBFE522085
:102620000DF0C8FE0520C3E73020002DC9D00DF005
:10263000C1FE122115480DF0EFFE0E2114480DF0D9
:1026400003FF4EF27A4143F22D400DF015FF522068
:102650000DF0B0FEB4E71120B3E711200DF0AAFE93
:10266000FFF77EFEAFE700BFA40C0020303900204A
:10267000640C0020000400406C3C0020AC100020E2
:10268000B1220008782900207DCF00083408010815
:1026900048080108002313B50DF107018DF8073034
:1026A000FFF7BCFE044690B19DF80730013B032BB9
:1026B0000DD8DFE803F002060F1200221146094B85
:1026C00002E00022074B99781878FFF711FF2046A7
:1026D00002B010BD00220621F1E7024B002259781A
:1026E000F2E700BF3039002013B5124C20460DF040
:1026F00061F90123A37704F017FF0F4C206008B99C
:10270000FFF72EFEE37843F00103E3700AF02AF9A5
:102710000A4BFF22186000234FF4A8710093084869
:10272000084B0BF07DF8FFF7ECFD0120FFF7B2FF3F
:1027300002B010BD640C002030390020E0100020F1
:10274000F81000204523000848B1074A1378013BE0
:10275000012B07D893782BB90320FFF7ADBE0122D8
:10276000024B1A70704700BFA40C0020EC10002030
:10277000014B1878704700BFA40C0020014B9870E3
:10278000704700BFA40C0020014BD870704700BFF9
:10279000A40C00200122014B1A707047EC1000209D
:1027A000F8B51C4C1C4EE378B268C3F342031AB967
:1027B000FFF77AFE0020F8BD184A52F8235023781C
:1027C0002BB9174B1B78042B01D1FFF76DFE154F6A
:1027D0003B7893B100233B704FF080431B69E27854
:1027E000DB0963F300022378E27073B102F03CF876
:1027F0000028DFD101F032F9DDE7002DDAD0B06832
:102800000AF0F4F8A842E5D2D4E7054B1B78042B74
:10281000ECD1CDE730390020A40C0020F0080108ED
:102820006C3C0020EC10002010B50B4B5A78012AAC
:1028300003D0022A08D0002005E09C78012C03D1A7
:1028400001F070F9204610BD58680AF0CFF8C7288B
:10285000F1D9FFF7F9FDF6E7A40C002010B5074BFE
:10286000D87810F0FD0404D10220FFF725FE2046A1
:1028700010BD0320FFF720FE0120F9E7A40C002083
:1028800038B50A4D0024EB78033B012B08D8032010
:10289000FFF712FE2046AC7001F0F0F8012038BDC1
:1028A0000220FFF709FE2046F9E700BFA40C002034
:1028B00038B50A4D0024EB78033B012B08D80320E0
:1028C000FFF7FAFD2046AC7001F0F8F8012038BDA2
:1028D0000220FFF7F1FD2046F9E700BFA40C00201D
:1028E00070B59D4C9D4D2068B0B10AF07FF8B0F5F1
:1028F000FA6F11D30026552026600DF05BFD57209E
:102900000DF058FD70200DF055FD29783246B1FAD2
:1029100081F04009FFF7ECFD2B7823B1904B93F841
:102920002020904B1A702368DBB98F4E30680AF074
:102930005DF840F6B733984213D92B788BB10DF080
:10294000A7F870B9864CA37F5BB10AF00BF8306032
:1029500053200DF02FFD94F8213013B970200DF0A5
:1029600029FD4FF080431B69EA78DB097F4C63F354
:1029700000020020EA70FFF78DFE2378032B1ED89B
:10298000DFE803F002284FA6E36833B1984720B18F
:102990000120FFF791FD0023A370236933B198470D
:1029A00020B10120FFF788FD0223A370636933B1D2
:1029B000984720B10120FFF77FFD0123A3700DF0A0
:1029C000F3FB6B4B1B78002B00F0C580BDE870401B
:1029D00003F0F4BCA369002BF1D098470028EED097
:1029E00002F048FB634B187008F00EFD2A78624B2A
:1029F0001A7000225A4B9A772A68604B134063B9C9
:102A00005F4C2378012B08D002225E4B20469A614E
:102A10000CF0C6F820460BF091FC0220FFF74CFDAD
:102A2000CDE7E369002BCAD098470028C7D0002221
:102A3000554B1A704FF080434FF400129A612A6888
:102A40004E4B1340B3F1807F10D0A37853B3013BBA
:102A5000012B0BD86378022B08D0FFF7B1FC1120B3
:102A60000DF0A8FC0DF014F80028FBD100F0E0FFF9
:102A70000023E370404B2A781B789A4208D12A68D9
:102A80003E4B1340B3F1807F02D0A07800F082FC6F
:102A9000A378012B19D0022B14D0002B8FD1FFF774
:102AA000DDFE8CE72E4B5B7E002BDFD111200DF07D
:102AB00081FC0CF0EDFF0028FBD147F230500AF00A
:102AC000E2FED3E7FFF7DCFE79E7FFF7F1FE76E7FA
:102AD000236A002B3FF473AF984700283FF46FAF91
:102AE00001221F4B9A77234B1B782BB14FF0804369
:102AF00020229A6108F06EFC0120FFF7CBFD30B96F
:102B00002A780AB3697802460846FFF7F1FC0024E8
:102B10001D4B1C701D4BD3F8902042F40072C3F87B
:102B20009020D3F8902022F40072C3F8902000F097
:102B300073FFFFF7B9FC00F03DFB2046FFF7BCFC3C
:102B400053200DF037FC3AE70D4B1B78012BDED1FB
:102B500011466878D9E770BDE010002030390020B8
:102B6000640C002078290020E8100020A40C00202C
:102B7000E5100020DC100020E4100020FF00000120
:102B80006C3C002000040040EC100020000C0140D0
:102B90000120704708B5FFF7FBFF08BD37B50446B5
:102BA0000D46FFF781FC29462046FFF7F3FF60B191
:102BB000074B1A784AB1074B20461B78D909009178
:102BC000C3F30013A9780DF013FB03B030BD00BFB1
:102BD000303900204039002000B50B4B8FB0322136
:102BE00093F82130094A01A805F069FC01A809F011
:102BF000B3F90CF049FF09F0AFF9054809F0ACF959
:102C00000FB05DF804FB00BF640C002058080108F9
:102C1000690801082B4B13B51A7804464AB12A4BB0
:102C200001211B78DB09009300230DF0E1FA02B0CB
:102C300010BD0028FBD0031FDBB2A02B12D8234B02
:102C40000146186809F07AFD20B1204604F01EFB09
:102C500004F0A0FB204604F011FB02B0BDE81040D8
:102C600004F098BB00F12003DBB2072B07D800F07B
:102C700007040120A040C0B204F036FBEDE700F1EC
:102C80005B03DBB2022B06D8243880B202B0BDE869
:102C9000104009F0FDBC00F15803DBB21A2B07D835
:102CA0000B4A32F8130002B0BDE8104009F00CBD29
:102CB0003334E4B2122CBAD8012102B0BDE810407E
:102CC00003F062BC3039002040390020500F002052
:102CD000BA080108244B13B51A7804464AB1234BAD
:102CE0001B78DB090093002319460DF081FA02B02E
:102CF00010BD0028FBD0031FDBB2A02B06D804F0C8
:102D0000C5FA02B0BDE8104004F044BB00F1200356
:102D1000DBB2072B07D800F007040120A040C0B2A7
:102D200004F0EAFAEDE700F15B03DBB2022B05D811
:102D3000104602B0BDE8104009F0AABC00F15803EB
:102D4000DBB21A2B05D8104602B0BDE8104009F0DE
:102D5000BBBC3334E4B2122CC9D8114602B0BDE872
:102D6000104003F011BC00BF303900204039002072
:102D70002DE9F3410446C0B1114E3378C3B10127A8
:102D8000DFF84080204603F090FB054698F80030BD
:102D9000E030DB09009301210023327880B207FA8A
:102DA00005F50DF025FAAC43ECD102B0BDE8F08199
:102DB00004F09AFA02B0BDE8F04104F0EBBA00BFAB
:102DC00030390020403900202DE9F3410446C0B1DC
:102DD000114E3378C3B10127DFF84080204603F05D
:102DE00064FB98F800300546DB0900930023E030CF
:102DF0001946327880B207FA05F50DF0F9F9AC43BF
:102E0000ECD102B0BDE8F08104F076FA02B0BDE882
:102E1000F04104F0BFBA00BF303900204039002033
:102E20002DE9F3410446C0B1114E3378C3B10127F7
:102E3000DFF84080204603F038FB054698F8003064
:102E4000E030DB09009301210023327880B207FAD9
:102E500005F50DF0CDF9AC43ECD102B0BDE8F08141
:102E600004F058FA02B0BDE8F04104F093BA00BF94
:102E700030390020403900202DE9F3410446C0B12B
:102E8000114E3378C3B10127DFF84080204603F0AC
:102E90000CFB98F800300546DB0900930023E03076
:102EA0001946327880B207FA05F50DF0A1F9AC4366
:102EB000ECD102B0BDE8F08104F034FA02B0BDE814
:102EC000F04104F067BA00BF3039002040390020DB
:102ED0002DE9F04104460D4601F05EFB00284AD181
:102EE0002378013B202B54D8DFE803F011164E68FD
:102EF0006E7A7D7D7D53BE82868C97A2A5A8B35342
:102F0000535353535353535353535353C3000023F7
:102F100063700C23A37025E06378013B032B38D842
:102F2000DFE803F0020C0F2C09F01CFD030EA37068
:102F3000030CE370030A2371607113E008F0EDFCE9
:102F4000F4E72646A77804F11C08032F0AD8F8B244
:102F500004F054FE030AF37030710236B04507F1F5
:102F60000107F2D14D4B29461B782046002B40F03B
:102F700091800AF019F80120BDE8F0810023A370C8
:102F8000E37023716371EDE76378022B04D0052BA6
:102F900010D0FF232370E5E7E378A07840EA032010
:102FA000237940EA0340637940EA036000BA08F0FD
:102FB000BBFCD7E7A07808F0E1FCD3E7E278A17882
:102FC000607808F0D8FFB5E762792379A17843EA01
:102FD00002235BBAE27860789BB208F0E2FFC1E7B7
:102FE00008F0F4FFBEE72946204608F042FDB9E7A5
:102FF00009F04CF86070B5E709F04AF8030A63700D
:10300000A070AFE76078A378E17840EA032040BA87
:10301000221D80B209F03FF8A4E76078A378E17838
:1030200040EA032040BA221D80B209F050F899E727
:1030300009F062F896E708F092FFDBE76078A37882
:10304000E17840EA032040BA221D80B208F0E6FF92
:1030500088E76078A378E17840EA032040BA221D2F
:1030600080B208F0F2FF7DE701230D4A6370137010
:1030700078E762780B4B4AB1A1781A7819B142F01F
:1030800080021A706EE761F3C712FAE71B78C3F388
:10309000C0133FE70DF06AFA6DE700BF303900203A
:1030A000E51000204039002073B54378044613B181
:1030B000FF23237012E08378013B042BF8D8DFE86C
:1030C00003F0031D2C4665000378072B08D0082B5E
:1030D000EED1374BDB78C3F34203C37002B070BD4F
:1030E000C1780729FAD8324BDA7861F34302DA70F3
:1030F000186802B0BDE8704004F019BA0378072BD5
:1031000005D0082BD4D101F0C0FBE070E6E7C07811
:1031100002B0BDE8704001F087BC0378072B0AD0ED
:10312000082BC5D162792179E07801F0B0FBA0715C
:10313000000AE071D2E7C2798379017943EA022378
:103140004279C07802B0BDE8704001F0B6BB0378A8
:10315000072B0ED0082BABD1C0782379617940EAD8
:10316000032040BAA21D80B202B0BDE8704001F059
:10317000B9BBC0782379617940EA032040BAA21D27
:1031800080B202B0BDE8704001F0C7BB0378072BE6
:10319000C6D100F11905267AE379A27961792079FF
:1031A0000096053401F0DEFAA542F4D196E700BF9F
:1031B0003039002008B509F0D5FB014B186008BD77
:1031C00048120020164B10B51C788CB9154B1B7893
:1031D000052B08D0022B06D009F0C4FB124B186057
:1031E000124B1C7010BD4FF080431B691B0603D4AB
:1031F000BDE81040FFF7DEBF0B4B18680028F7D082
:1032000009F0F4FB41F657339842EBD9FFF7D2FFB0
:10321000BDE810400122054B1A70FFF7BBBA00BF92
:10322000303900206C3C0020481200204C12002055
:103230002DE9F0411B4C064625781DB1012420469E
:10324000BDE8F081FFF794FA0138012805D8032082
:10325000FFF732F92846FFF791FA94F80080B8F1A9
:10326000000FEBD1104D2B78052BE7D1B5F84C3082
:103270009B0702D50D4F3C7824B9FF2E94BF002444
:103280000124DCE7FFF774FA0328D7D887F8008019
:10329000FFF790FF28460BF0FDF8284601F0BCF937
:1032A000CDE700BF303900206C3C00204C120020DC
:1032B000704700001A4B70B59C6C0F2644F4C06434
:1032C0009C649B6C012301F003048B4021F00301FB
:1032D00001F1804101F5A0518D68A400C0F3832065
:1032E000A04006FA04F425EA040528438860D84380
:1032F0000C4912F0010F8C6814BF1C4304408C6011
:1033000012F0020FCA6814BF1A430240CA60054A8D
:10331000536111680B43136053680340536070BDE1
:10332000000C0140001800400F281FD8DFE800F013
:10333000080C0F121518181818181B1B1B1B1B1B29
:10334000062108460BF0DFBA06210720FAE706211E
:103350000820F7E706210920F4E706210A20F1E713
:1033600006211020EEE706212120EBE7704701201F
:10337000704708B5FFF7FBFF50B14FF080400122C6
:103380000721FFF797FFBDE808400720FFF7CCBFF4
:1033900008BD00002DE9F0473023054683F311886E
:1033A000FFF7E7FF4FF000090127904EDFF840825A
:1033B00056F8043B95B1012D4FD143454DD123F033
:1033C0000F0A03F00F0307FA03F4214605225046C3
:1033D00024040BF006FCCAF8184001E0581CEED19A
:1033E00009F10109B9F10E0FE2D104240127814E40
:1033F000DFF8049256F8040B002D3AD0012D40F06E
:10340000E880484540F0E58000F00F01202207FAEF
:1034100001F120F00F000BF0E4FB00BF00BF00BF84
:1034200000BF00BF00BF00BF00BF00BF00BF00BFA4
:1034300000BF00BF00BF00BF00BF00BF00BF56F805
:10344000040C032200F00F08414620F00F00FFF7A4
:1034500031FF4046FFF768FF0DE0591CC0D003F074
:103460000F01202207FA01F123F00F000BF0B9FB46
:10347000B6E7421CC8D1013CBCD122464FF40061E2
:103480005E480BF0AEFB00BF00BF00BF00BF00BF37
:1034900000BF00BF00BF00BF00BF00BF00BF00BF34
:1034A00000BF00BF00BF00BF00BF03220B21534875
:1034B000FFF700FF0B20FFF737FF84F3118872B688
:1034C0004FF0E0220120136923F0010313614C4BFC
:1034D0004C4A5A610022A30003F1604303F56143A3
:1034E000D3F80011D5B2012D94BF002101F00101E4
:1034F00009B1C3F880010132202AF1D10134082C2E
:10350000E8D1414C636843F0007363603F4B1A6835
:1035100002F009021A601A6842F46C3242F00402A6
:103520001A6040F2B3321A62394B43F001039847F4
:10353000236943F00403236130BF364B43F001039A
:1035400098474FF0E022236923F0040323611369B5
:10355000314C43F001031361E36943F08003E361FD
:10356000A36C43F40073A36409F04CFD04F07AFBF0
:1035700040F282324FF4006120480BF032FBE36CE2
:1035800043F00803E364E36CA36C43F48053A36447
:10359000A36CE36C43F01003E364E36CFFF788FE75
:1035A000002383F3118862B6D4F8903043F4C063EB
:1035B000C4F89030D4F8903023F4C063C4F890304D
:1035C000D4F89030A36C23F4C063A364A36CBDE86B
:1035D000F087431C3FF44FAF00F00F01402207FA81
:1035E00001F120F00F000BF0FCFA44E7100901088C
:1035F0000B040040A40901080D0800400008004029
:1036000000180040FFFF070000ED00E0000001404F
:103610007C09010848090108000C0140012070479D
:1036200001207047C31F10B504460B2B18D8DFE8E4
:1036300003F011171717131715171717170604207C
:10364000FFF7A2F82046FFF7E9FF10B12046FFF789
:10365000E7FF10BD0320F3E70220F1E70520EFE7C5
:103660000120EDE701238B40034202D00846FFF71B
:10367000D9BF704708B50D4B5A69D20706D51A68ED
:10368000002022F001021A60FFF7CCFF4022084B15
:10369000C3F88020BFF34F8FBFF36F8F0122034B1E
:1036A0005A61BDE808400AF0E3B900BF00180040C5
:1036B00000E100E008B50D4B586910F0020006D09B
:1036C0001A68012122F002021A60FFF7CBFF802264
:1036D000074BC3F88020BFF34F8FBFF36F8F0222D9
:1036E000024B5A61BDE808400AF0C2B90018004018
:1036F00000E100E008B50E4B586910F0040006D058
:103700001A68022122F004021A60FFF7ABFF4FF49F
:103710008072084BC3F88020BFF34F8FBFF36F8FC9
:103720000422034B5A61BDE808400AF0A1B900BF6A
:103730000018004000E100E008B50E4B586910F099
:10374000080006D01A68032122F008021A60FFF769
:1037500089FF4FF40072084BC3F88020BFF34F8FEE
:10376000BFF36F8F0822034B5A61BDE808400AF08F
:103770007FB900BF0018004000E100E008B50E4B23
:10378000586910F0100006D01A68042122F01002C7
:103790001A60FFF767FF4FF48062084BC3F8802080
:1037A000BFF34F8FBFF36F8F1022034B5A61BDE8F9
:1037B00008400AF05DB900BF0018004000E100E0D9
:1037C00038B5254B5C69A20604F4787507D51A68EC
:1037D000052122F0200228461A60FFF743FF600609
:1037E00008D51D4A06211368284623F040031360BC
:1037F000FFF738FF210608D5174A07211368284626
:1038000023F080031360FFF72DFFE20508D5124A6D
:1038100008211368284623F480731360FFF722FF02
:10382000A30508D50C4A09211368284623F4007320
:103830001360FFF717FF4FF48032084BC3F8802066
:10384000BFF34F8FBFF36F8F4FF47872024B5A6103
:10385000BDE838400AF00CB90018004000E100E073
:1038600038B52A4B5C69620504F47C4507D51A68B3
:103870000A2122F4806228461A60FFF7F3FE23052E
:1038800008D5224A0B211368284623F400631360ED
:10389000FFF7E8FEE00408D51C4A0C21136828460F
:1038A00023F480531360FFF7DDFEA10408D5174A07
:1038B0000D211368284623F400531360FFF7D2FE4E
:1038C000620408D5114A0E211368284623F4804368
:1038D0001360FFF7C7FE230408D50C4A0F211368B5
:1038E000284623F400431360FFF7BCFE0222084B76
:1038F000C3F88420BFF34F8FBFF36F8F4FF47C4228
:10390000024B5A61BDE838400AF0B2B800180040D6
:1039100000E100E008B50E4B586910F4802006D095
:103920001A68122122F480221A60FFF79BFE0822F7
:10393000084BC3F88420BFF34F8FBFF36F8F4FF452
:103940008022034B5A61BDE808400AF091B800BFDD
:103950000018004000E100E010B5074C23784BB997
:1039600001F09AFB02F0BFFD08F064FE02F0BCFD1E
:1039700001232370012010BD4F12002010B5044C0C
:1039800023781BB101F080FB00232370012010BDC0
:103990004F12002038B5154C00252378032B22D870
:1039A000DFE803F0020B131B0A2311488370C57074
:1039B00008F064FE0123237038BDF6230C48C37061
:1039C000857008F05BFE0223F5E7F6230848837054
:1039D000C57008F053FE0323EDE70A230448857001
:1039E000C37008F04BFE2570E6E700BF4D120020C3
:1039F00064120020054B1B7833B1054B1B780BB9C3
:103A0000FFF7C8BF0CF0A0BC704700BF52120020E7
:103A1000303900200120704708B5044B1B780BB9E2
:103A2000FFF79AFF01F05CFB08BD00BF4F120020BA
:103A300008B5064B1B780BB1FFF7A0FF0023044A23
:103A40001370044A1360FFF7E5FF08BD4F12002012
:103A50005C120020601200200120704708B5FFF7BB
:103A6000FBFF08BD014B1878704700BF50120020C3
:103A7000014B1870704700BF50120020014B1870A6
:103A8000704700BF50120020014B1878704700BFEC
:103A900051120020084B10B50446187058B9FEF7B3
:103AA00067FE022807D80320FEF706FD2046BDE882
:103AB0001040FEF763BE10BD51120020FFF7EABFB1
:103AC000024B187880F00100FFF7E4BF511200208C
:103AD000084B1A78084B1B784BB982F00102A0F50D
:103AE000A443203B1F2B8CBF1046012070470022AF
:103AF000F5E700BF511200205012002000231946A4
:103B0000064A937213609375D360054A0333212BE1
:103B1000917242F80C1BF9D1704700BF380F00209A
:103B2000C80C002008B504F015F9FFF7E7FF0022E4
:103B3000014B1A6008BD00BF5812002001207047D9
:103B400008B5FFF709FFFEF7CFFD01F0ABFA48B16A
:103B5000012220214FF080400BF043F84FF08043CA
:103B600020229A6108BD000000230D4A10B5137091
:103B70000C4A4FF0804413700B4A136007F05CFC52
:103B800001280AD007F050FC4FF40013A36102F0A3
:103B900001FBBDE8104003F060BD2023F6E700BF45
:103BA0004E120020531200205412002008B503F0DA
:103BB00025FD05F083FF03F0B0FC084B188060F092
:103BC0007F001870188803F0ABFC01F0FBFA18B105
:103BD000BDE80840FFF7C8BF08BD00BF403900205E
:103BE00037B504460D4602F07FFA002800F0D28077
:103BF000002D00F0CF8047F615639C423ED8B4F507
:103C0000FC4F07D247F603439C4200F0C080284691
:103C100003B030BDA4F5FC44152CF8D801A353F82B
:103C200024F000BF933C0008BF3C0008E33C0008C0
:103C3000073D00082D3D0008533D00080F3C0008DB
:103C40000F3C00080F3C00080F3C00080F3C000828
:103C50000F3C00080F3C00080F3C00080F3C000818
:103C60000F3C00080F3C00080F3C00080F3C000808
:103C7000793D0008813D0008893D000847F643630F
:103C80009C42C4D10122444B1A700022434B1A605B
:103C9000BDE7002301200DF107018DF80730FEF785
:103CA000BDFB9DF80730042B02D013F0FD0FAED101
:103CB000012211463A4B1878FEF71AFCA7E70023B9
:103CC00001200DF107018DF80730FEF7A7FB9DF8E5
:103CD0000730042B02D013F0FD0F98D101220221EE
:103CE000E8E7002301200DF107018DF80730FEF70A
:103CF00095FB9DF80730042B02D013F0FD0F86D101
:103D000001220321D6E7002301200DF107018DF8E0
:103D10000730FEF783FB9DF80730042B03D013F028
:103D2000FD0F7FF474AF01220421C3E700230120BB
:103D30000DF107018DF80730FEF770FB9DF8073095
:103D4000042B03D013F0FD0F7FF461AF0122052196
:103D5000B0E7002301200DF107018DF80730FEF7D1
:103D60005DFB9DF80730DA1E012A02D9002B7FF493
:103D70004EAF012206219DE70020FFF78BFE46E7AC
:103D80000122084B1A7042E7FFF79AFE3FE7FFF760
:103D90000DFF3CE705463AE753120020541200207D
:103DA000303900205112002070B5FEF799FD002532
:103DB00001261C4C206858B1A37A4BB908F016FEB6
:103DC0006368984204D301212089A672FFF708FF97
:103DD0000335062D04F10C04ECD100250126124C0C
:103DE000206858B1A37A4BB908F000FE6368984286
:103DF00004D301212089A672FFF7F2FE0335212D9D
:103E000004F10C04ECD1094B1A783AB100221A7073
:103E10000BF03EFE0028FBD1FFF7C8FE01F062F96F
:103E200070BD00BF380F0020C80C00206A120020AF
:103E300008B5064B1B780BB9FFF78EFD4FF080439A
:103E400020229A61BDE8084008F056BD4F120020BC
:103E50002DE9F7430D46AB4A897804461368E9B16A
:103E6000032B00D80133A84F1360FEF71DFB3889E0
:103E7000844217D0B88A84420CD1012695F802807A
:103E80004FF00C09B8F1000F0ED008F06BFD09FBE4
:103E900006F6B8519D4B00261F4633E0002BE2D0BA
:103EA000013BE0E70026E9E709FB06F607EB060918
:103EB00099F80A300BB9BB51ECE74146FFF790FE89
:103EC00089F80A8047F806800028E3D1002003B073
:103ED000BDE8F08309FB06F607EB060999F80A30FE
:103EE0000BB9BB511DE041462046FFF779FE89F82A
:103EF0000A8047F80680A0B9E8E701360B2E03F1E7
:103F00000C030ED01A899442F7D195F802804FF035
:103F10000C09B8F1000FDDD008F024FD09FB06F60E
:103F2000B85129462046FFF7D3FD0028CED02946B8
:103F3000204601F04DFA0028C8D047F607639C429E
:103F40002DD8B4F5FC4F1BD247F620039C4200F05D
:103F5000188147F603439C42B8D02946204600F01A
:103F600083FD0028B2D029462046FFF761F90028DA
:103F7000ACD02946204603B0BDE8F043FEF70EBEA4
:103F8000A4F5FC44013CAB78062C31D8DFE814F0F2
:103F90004E00690084009F00C600E1002D00A4F5DA
:103FA000FC43403B9AB2032AD7D8032BD5D801A2B1
:103FB00052F823F0C53F0008D13F0008DD3F00085C
:103FC000CD3E0008AB78002B80D0FEF705FE7DE7E4
:103FD000AA784F4B02B101221A7077E7AB78002B19
:103FE0003FF474AFFEF7D6FB70E74A4A13706DE7F3
:103FF000002B3FF46BAF484C2378012B3FF466AFA6
:10400000002301200DF107018DF80730FEF706FAB5
:104010009DF80730042B03D013F0FD0F7FF456AF4B
:10402000002201212078FEF763FA4FE7002B3FF4CE
:104030004DAF394C2378022B3FF448AF00230120C9
:104040000DF107018DF80730FEF7E8F99DF807300C
:10405000042B03D013F0FD0F7FF438AF00220221B0
:10406000E0E7002B3FF432AF2B4C2378032B3FF4D7
:104070002DAF002301200DF107018DF80730FEF769
:10408000CDF99DF80730042B03D013F0FD0F7FF41A
:104090001DAF00220321C5E7002B3FF417AF1E4CD4
:1040A0002378042B3FF412AF002301200DF1070108
:1040B0008DF80730FEF7B2F99DF80730042B03D0D6
:1040C00013F0FD0F7FF402AF00220421AAE7002BBA
:1040D0003FF4FCAE104C2378052B3FF4F7AE0023E1
:1040E00001200DF107018DF80730FEF797F99DF8D3
:1040F0000730042B03D013F0FD0F7FF4E7AE00224E
:1041000005218FE758120020380F0020C80C00202E
:10411000521200204E12002030390020002B3FF4B4
:10412000D5AE1F4C2378062B3FF4D0AE00230120E0
:104130000DF107018DF80730FEF770F99DF8073093
:10414000DA1E012A02D9002B7FF4C0AE002206211C
:1041500068E7002B3FF4BAAE114C2378002B3FF4F4
:10416000B5AE002501200DF107018DF80750FEF7CF
:1041700055F99DF80730012B3FF6A8AE2A4629468F
:1041800050E7AB78002B3FF4E8AE07F055F94FF05D
:10419000804318B14FF400129A61DEE62022FBE75B
:1041A00030390020014B1870704700BF5C120020AE
:1041B000014B1878704700BF5C120020F8B5054627
:1041C0000C46584E584F2146284600F06DFE50B11F
:1041D000062C08D8DFE804F004085D9393A0A00043
:1041E0000022504B1A60F8BD32687ABBA5F1170364
:1041F000042B0BD8DFE803F02503161B2000002258
:10420000FF2311461820FDF799FF01224FF4FA71A0
:104210002846FDF7D7FF2846FDF76EFF08F0A2FB02
:104220003060E0E70022FF2311461920EBE700226F
:10423000FF2311461A20E6E70023FF2219461B2020
:10424000E1E7002317201A461946DCE7104608F07C
:10425000CDFB47F22F53984203D90524334B1C70F2
:10426000B1E7334B1B7883B9172D0ED1314B1B7837
:10427000042B3FD103232D4C28462370FF231A46DD
:104280001946FDF75BFF24789DE77A7E8AB3032405
:10429000E4E73068F8B9A5F11803032BA3D8DFE8E9
:1042A00003F0020B10150022FF2311461820FDF722
:1042B00045FF0122C821ABE70022FF231146192048
:1042C000F5E70022FF2311461A20F0E70023FF2222
:1042D00019461B20EBE708F089FB47F22F53984261
:1042E00001D90624BAE77B7E0BB10424B6E7104B54
:1042F0001B786BB12846BDE8F840FDF7FDBEFF22F4
:104300004FF4FA612846FDF75DFF2846FDF7F4FEFD
:104310000022064B1A7066E70022044B1A70FEF763
:1043200039FAE7E760120020640C00205C120020DC
:10433000303900206C3C0020014B1978FFF73EBF5C
:104340005C1200200120704770B506460D4618200B
:104350000021FDF721FF10B90024204670BD002187
:104360001920FDF719FF0028F6D000211A20FDF7CB
:1043700013FF0028F0D000211B20FDF70DFF0028BF
:10438000EAD000211720FDF707FF0028E4D02946D6
:104390003046FFF7D7FF04460028DDD00022044B4B
:1043A00029461D70034B30461A60FFF707FFD4E71C
:1043B0005C1200206012002070B50D461446FDF717
:1043C000FDFF064680B155B3174B5B7E2BBB013D0D
:1043D000052D09D8DFE805F0030C120808182CB1E8
:1043E00002211820FFF7B0FF304670BD0121F8E729
:1043F00014B102211920F5E70121FBE714B10221D4
:104400001A20EFE70121FBE714B102211B20E9E7A5
:104410000121FBE702211720E4E71E46E4E7002C18
:10442000F8D10121F7E700BF640C002008B50C4B60
:104430001B789BB9FEF79CF980B90A4B1A783AB100
:10444000094A527E52B95978BDE80840FEF750B883
:10445000064B1B78042B01D01146F5E708BD00BFC1
:104460005C12002030390020640C00206C3C0020DD
:10447000704700002DE9F04F424F85B005460E46CB
:10448000FFF7F6FFFFF7D2FF3C78002C32D03E4D0D
:104490002B6813B908F066FA2860286808F0A6FAB5
:1044A00041F28733984205D93B7801333B7008F0DD
:1044B00059FA28603B78013B032B17D8DFE803F05B
:1044C000020C101400226E20114606F0B5F90024EB
:1044D000204605B0BDE8F08F00226E211046F4E7BB
:1044E00000216E220846F0E76E22F6E700243C70B9
:1044F0002C60EDE7254B1B788BB931462846FFF73A
:104500001DFB0028E3D03146284600F06FFE04462C
:104510000028DCD031462846FDF76EFED8E722465B
:104520002146204601AF06F087F9BA464FF00A0847
:10453000DFF85CB0DFF85C900A2259465046FCF781
:1045400025F899F81F30E2B2B3FBF8F1914214D983
:10455000312B38780AD900236E221946013405F030
:10456000DFFA0A2C07F10107E6D1C6E71D2B4FF051
:104570000003F1D81A466E21F0E7002338781A4676
:104580001946EBE753120020541200204E1200206F
:10459000B4090108640C002070B505460E46FDF70D
:1045A00083FFFEF7E5F810B10320FDF785FF2B78B8
:1045B0000A2B0ED10124084B31461C70074B2846AC
:1045C0001B781BB908F0F0FC204670BD0BF0CEFF45
:1045D000FAE70020F9E700BF6A1200203039002016
:1045E000012810B5044611D002280AD1FEF7C0F800
:1045F0000138012805D80320FDF75EFF0020FEF7F3
:10460000BDF82046BDE8104008F050B9014B1870C5
:10461000F7E700BFA8100020014809F034B900BF37
:10462000A08601000E4BF0B51B6893B11C2202FB63
:1046300000300C4A0123164630F8115032F8027B44
:10464000DCB2AF4206D104F0070336F8133020F88D
:104650001130F0BD0133092BF0D10023F7E700BF83
:104660006C120020940B01082DE9F74304460D4617
:1046700006F05EFF00274FF01C092D4EDFF8B480D6
:104680007080E0B2854250D900232B4A0FE01CF81D
:1046900001EBBEF1FF0F01D070451BD001310E2997
:1046A000F5D10133DBB2042B02F10E023BD094466C
:1046B0000021ECE7012A07D1012B05D173888DF881
:1046C00000708DF8017016E08DF801308DF8001043
:1046D000738810E0D8F800202AB309FB032333F8CD
:1046E0001120110AD3B2120AE4D1002BECD18DF8BB
:1046F00000308DF801308DF80230009804F0F6FC9F
:10470000C0F307238DF80400C0F307408DF805308F
:104710008DF806009DF8063020469DF805209DF88E
:10472000041005F0FDF90134ABE703B0BDE8F083F8
:104730004C0D00206C120020500D0020032810B5F5
:104740000BD80D2909D80E24054B04FB0030435C1F
:10475000FF2B02D00120137010BD0020FCE700BF2A
:10476000500D00202DE9F047032804460D4616465B
:104770001F469DF8208033D81E4B1A701E4B1F70A9
:104780001E4B83F8008006F081FE2E2807D02E20D5
:1047900006F079FE00221146104606F04DF8DFF8CB
:1047A000609029464A462046FFF7C8FF06F0C0FE43
:1047B0000425144B588099F80000134B1A460E2418
:1047C00012F8011BFF2901D088420BD0013C14F0E4
:1047D000FF04F5D1013D15F0FF0503F10E03EDD106
:1047E000BDE8F08743463A463146BDE8F04705F05C
:1047F00097B900BF36390020343900203539002000
:104800006B1200204C0D0020500D002070B40D469E
:104810001143014304D170BC70220A48FBF72CBF3E
:1048200000241C260E2306FB04F10648013B13F06E
:10483000FF03057042700844F8D10134042CF1D113
:1048400070BC70477012002010B5064A0B461478F1
:10485000012C05D158780978FFF7E4FE204610BDF9
:104860000020FCE74C0D0020024B1878431E5842F4
:10487000584170474C0D00200E2303FB012270238A
:104880005843223000EB4200704704207047032851
:1048900038B510D803290ED80D2A0CD8FFF7ECFF35
:1048A000054604F057F80446681C04F053F844EA3F
:1048B000002080B238BD0020FCE7032870B51C46FC
:1048C0000FD803290DD80D2A0BD8FFF7D5FF0546C1
:1048D000E1B204F0A7F8210A681CBDE8704004F0BA
:1048E000A1B870BD2DE9F843002405460F461646D1
:1048F000A14600F12208BC4208EB040001D1BDE84A
:10490000F8832B19B3F5E07F04DA04F023F830556F
:104910000134F0E706F80490FAE72DE9F041054686
:104920000E461746002400F12208B44208EB0400AA
:1049300001D1BDE8F0812B19B3F5E07F02DA395DD2
:1049400004F070F80134F0E7032806D870225043D1
:1049500000F12201014804F04BB8704770120020AA
:10496000032838B50CD8084900230C78012C07D14E
:104970004D78A84206D10B70FFF7E6FF204638BD00
:104980000020FCE71846FAE74C0D0020032806D863
:104990007022504300F12201014804F071B87047C1
:1049A00070120020074B084A10B51A600023074C0C
:1049B0002370607006F0BCFD60806078BDE8104038
:1049C000FFF7E4BF6C120020701200204C0D002095
:1049D000032808B50CD8074A5070FFF7D7FF06F038
:1049E00055FD2D2802D02D2006F04DFD012000E0C0
:1049F000002008BD4C0D0020032810B510D8094A2E
:104A0000117869B9012450701470FFF7BFFF06F0E8
:104A10003DFD2D2802D02D2006F035FD204600E07A
:104A2000002010BD4C0D0020032810B5044609D805
:104A3000FFF7ACFF2046FFF793FF2046BDE810408C
:104A4000FFF7C6BF10BD000008B5054802F07EFDA7
:104A5000BDE808404FF4E0722221024803F0C8BFCD
:104A6000BF090108DA0E010808B50A4609490346DC
:104A7000087801280CD1A3F5A443203B1F2B06D9AD
:104A8000907820B150781178FFF7CCFD002008BD58
:104A90000120FCE74C0D002070B504460078FF288B
:104AA00001D106F0F3FC0D4900220D4611F8016B0F
:104AB000D3B2864203D00132102AF7D113462278AE
:104AC000FF2A12BFFF22013303F00F03E85C18BF77
:104AD0002270BDE8704006F0D6BC00BFB20B0108E2
:104AE00038B50B780546FF2B0C4602D106F0CEFCFC
:104AF0002070284638BD10B54FF4F37420460021CD
:104B0000013403F052FFB4F5FB7FF7D110BD000074
:104B100010B506F0BBFC00230246054911F8014B15
:104B2000D8B2944203D00133102BF7D1184610BDF0
:104B3000B20B010810B50446FFF7EAFF2146BDE8B5
:104B4000104000F5F37003F030BF08B5FFF7E0FF49
:104B500000F5F37003F0FEFE082828BF002008BD12
:104B600070B506F093FC0723124A12F8011B81422C
:104B70001DD0013B13F0FF03F7D10724FFF7E5FF3A
:104B80000130B0FBF4F304FB13040B4B13F8145087
:104B900003EB44035E7806F0CBFC31460246284620
:104BA00006F0B7FCE0B2BDE87040FFF7C3BF0624D3
:104BB000E4E700BFC20B0108A40B010838B5FFF7FA
:104BC0006BFFFFF7C2FF074B13F8104003EB4003E6
:104BD0005D7806F0ADFC294602462046BDE8384027
:104BE00006F097BCA40B01082DE9F0431C4B85B0DF
:104BF0001B7823B3002201AC1146104605F01CFEC1
:104C00000025A0460A26DFF85C90174F0A22494685
:104C10004046FBF7BBFCFB7FEAB2B3FBF6F19142E7
:104C200000D8BAB9312B20780DD900236E2219464D
:104C3000013504F075FF0A2D04F10104E6D10120CD
:104C400005B0BDE8F0831D2B4FF00003EED81A46E7
:104C50006E21EDE7002320781A461946E8E700BFE9
:104C6000E0120020B4090108640C00202DE9F8438B
:104C7000524B0446DD78524E15F0010545D0514B9C
:104C8000514A1B78514F524D23B34FF00008C2F8E0
:104C9000008007F067FEC7F8008001274D4B377092
:104CA00018602B78002B6AD14B490A68022A03D975
:104CB00000231A46194621E001320A602046FF22ED
:104CC0001946FDF73BFA3A464FF4FA712046FDF7D4
:104CD00079FA54E01360404A3B60136001232D7859
:104CE0003370002DE4D13B4B186807F07FFE41F292
:104CF00088339842DCD82B462A46FF212046FDF710
:104D00001DFAFF224FF49671E0E7344FDFF8C490AC
:104D1000FB7FDFF8C4800F2B41D807F023FE2C4B1C
:104D2000C9F800001B78C8F800501BB926490A686A
:104D3000022A29D9002320461A461946FDF7FEF912
:104D4000FF224FF496712046FDF73CFA337883F04A
:104D500001033370FB7F93B91C4D2B6813B907F027
:104D600001FE2860286850B107F040FE47F230533A
:104D7000984204D9002301202B60FEF779FE2046DB
:104D8000BDE8F843FDF7B8B901320A6020461A467B
:104D9000FF21FDF7D3F901224FF4FA71D3E70A4B53
:104DA0001D6007F0DFFD094BC9F800001D600123FD
:104DB000C8F8005033702B467BE700BF3039002025
:104DC0001E0E0020E2120020FC120020E41200203F
:104DD0000C130020EC120020E8120020640C0020CC
:104DE00013B51F4B04461A78042A0ED8DFE802F0E8
:104DF0000333131D330000231A461946FDF79EF9AD
:104E0000FF2232212046FDF7DDF9204602B0BDE841
:104E10001040FDF771B901221A70FF231A46194696
:104E2000FDF78CF90322C821ECE70023ADF804302C
:104E300006F07EFB8DF80600019804F057F9C0F3E8
:104E40000722C1B2C0F307432046FDF777F90122DC
:104E50004FF4FA71D6E700221A70FFF7C1FFD4E7CA
:104E6000F4120020FF2810B504461AD10D4BD3F8D8
:104E7000143123F07F436E2B0CD100221146FDF735
:104E80005DF920460121FDF771F92046BDE810408B
:104E9000FDF732B9B3F5DC0F03D100236E221946BA
:104EA000EDE710BD200E00200339012910B504469E
:104EB00021D81A2810D8172814D819D0FF224FF457
:104EC000FA612046FDF77EF92046FDF715F900202E
:104ED000FFF768F9002010BD1B28EFD10023FF2247
:104EE000194602E00022FF231146FDF727F9E5E706
:104EF000FF231A46F4E70120EDE7000008B5054B53
:104F000000211870FB20FDF747F9BDE80840FB20A1
:104F1000FFF766BFF4120020F8B5037C0546FA2BB4
:104F20000AD0FB2B5DD04B4B1B7843B9FFF79CFCA1
:104F300080F00104E4B203E0474B1B7813B1002476
:104F40002046F8BD434B1C78002CF8D1437C002B45
:104F500044D0816921F07F41FF2938D13F4BDB7874
:104F6000DB072DD53E4B1C78002CE8D13D4E3E4F43
:104F7000337838683D4D7BB907F038FD022805D9F4
:104F800007F0F0FC2B78386001332B702B78C72B9F
:104F90000FD9012333700CE007F028FD022805D952
:104FA00007F0E0FC2B783860013B2B702B78002B4E
:104FB000F0D000231A4629780A2004F0B1FDBFE79B
:104FC0002B4BDB7F0F2BBAD823462246F4E7B1F5F3
:104FD0007F4FB4D12346FF222146EDE723462246E8
:104FE000FAE71D4B1B78012BA9D1FFF73DFC0446C6
:104FF0000028A4D16B7CB3B10C20AB7E6A7E297EE5
:1050000004F08EFD0820AB7E6A7E297E04F088FDC8
:10501000AB7E6A7E297E092004F082FDAB7E6A7E2B
:10502000297E0720C9E70346024601460C2004F00A
:1050300077FD234622462146082004F071FD2346D1
:1050400022462146092004F06BFD234622462146D4
:10505000E7E700BF0C130020F412002030390020D5
:10506000E212002004130020081300200313002084
:10507000640C0020034B187810F0030018BF0120C7
:10508000704700BF543900204FF48032014B01209B
:105090009A617047000400400120014B98617047FD
:1050A00000040040012238B501240B4D114628466A
:1050B00009F097FD20224FF400414FF08040AC6191
:1050C00009F08FFD4FF080431B69044AC3F3C033DE
:1050D0002046137038BD00BF00040040E2120020DB
:1050E000012070474FF080431B6970B52D4DC3F30D
:1050F000C0332B70FDF73CFB2B4C78B92B4E30683E
:1051000007F074FCB0F57A7F08D907F02BFC30600B
:1051100053200BF04FF920780BF04CF9FDF728FBEA
:10512000234BDB7818BB13F0010F224B1BD04FF43D
:1051300080329A612B78EBB1662323701E4C237862
:105140001B070ED51D4D287801F0AFF9032813D1A8
:105150001B4B1A786FF3C7121A7023786FF3C303CF
:105160002370012070BD01229A616523E5E7DA070B
:10517000FBD5DFE76423E0E7287801F096F90428FF
:10518000E6D0287801F091F90328EAD0287801F0D8
:105190008CF90428E5D00A4A137843F08003137091
:1051A000DBE700BFE2120020F2120020F81200201C
:1051B00030390020000400403C3900201613002044
:1051C0004039002008B5FDF7CBF86E23FF201A46C2
:1051D0001946FCF7B3FF0322FA21FF20FCF7F2FF88
:1051E000FF20FCF789FF012008BD00006C4BF7B5DC
:1051F0001B7804460D46C3B104238DF804305023B8
:105200008DF8053096238DF80630019803F06EFF77
:10521000644BC0F30721C0F30742187059709A70AD
:10522000C9B2D2B2C0B205F007FB29462046FCF74E
:10523000E3FF5D4B1B78002B7BD05C4B1B7823B1CD
:1052400000221146104605F0F7FA594B1B78012B46
:1052500049D1FF2318201A46194604F061FC554E27
:10526000307801F022F9032859D1FF230F201A4684
:105270001946514F04F054FC3B7899072CD5FFF7A1
:10528000F3FA48B907F0DEF9820705D5FF231320AA
:105290001A46194604F044FCFFF7E6FA98B930784C
:1052A00001F003F903280ED0307801F0FEF804284D
:1052B00009D0424B1B78DB0605D5FF2301201A4697
:1052C000194604F02DFC3B78DE0605D5FF230020AF
:1052D0001A46194604F024FC29462046FFF784FCB0
:1052E000012003B0F0BD022B04D1FF2319201A4680
:1052F0001946B2E7032B04D1FF231A201A46194698
:10530000ABE7062B04D1FF231B201A461946A4E75E
:10531000002BA4D1FF2317201A4619469DE73078A9
:1053200001F0C3F80428A0D0FF2310201A46194624
:105330009FE706F0FDF81D28D2D91F4C2378980767
:10534000CED5FFF791FA48B907F07CF9810705D56A
:10535000FF2313201A46194604F0E2FBFFF784FAF4
:10536000A0B9144D287801F0A0F803280ED02878B1
:1053700001F09BF8042809D0104B1B78DA0605D5FC
:10538000FF2301201A46194604F0CAFB2378DB06E6
:10539000A6D5FF2300201A46194604F0C1FB9FE75B
:1053A0000C13002038390020E1120020F3120020F5
:1053B00030390020161300203C39002040390020ED
:1053C000024B4FF4F170196803F048BB3C390020E0
:1053D0002DE9F8439C4C064623780D463BB18B786B
:1053E0002BB1002211461046227005F025FA974B8A
:1053F0005B7E4BB9964B1B7833B1331FA02B03D880
:1054000000242046BDE8F883B6F50E7F6CD840F244
:105410001D239E4234D8E72E00F24586E02E51D857
:105420007C2E00F02F825AD8382E00F0BA857B2EC1
:1054300000F014820124E4E7A6F5FC46092E00F2F0
:105440003886DFE816F09602B702D702360636062F
:105450001703F7026D03A503AD03A6F5F046203E42
:105460000A2E00F22986DFE816F0FE044F04270614
:105470008203270627062706D303DD03B303C103F0
:10548000A6F21E261A2E00F21A86DFE816F0AD00EC
:10549000BD00CD00E700F700070117012701370124
:1054A0009D00180618061806180618064701570129
:1054B00067017701870118069701A7011806B70150
:1054C000C701D701E13E062E00F2FC85DFE816F0A9
:1054D0007700FA050703DA0577007A05A5057D2E22
:1054E00000F0E48101248CE747F609639E4231D83D
:1054F000B6F5FC4FA0D247F62A039E4220D847F6C5
:105500001F039E42A9D845F222239E4200F0CC847C
:105510000AD8B6F5A44F00F0988345F203239E42C3
:1055200000F0CA8301246CE745F225239E4200F077
:10553000018547F213039E4200F0BF82012460E719
:10554000B6F5F84F00F01B8347F616439E4220D075
:10555000012456E747F620639E4200F0FD82A6F53F
:10556000FC464A3EB3B20D2B00F2AF850D2E00F281
:105570009D85DFE816F0E40308042C049B059B05D9
:105580009B059B059B059B0550049B059B059B0567
:10559000AF01AC782F4B54B12F4A00241278002A67
:1055A00014BF352029201A7000F080FE29E71B78EF
:1055B000002B14BF3520292000F08EFE21E7AA78A9
:1055C000254B01241A701CE7AC78E12034B100F0BF
:1055D0006DFE272000F06AFE002412E7FDF77AFB3B
:1055E0002720FDF777FB0CE7AC78E12034B100F021
:1055F0005DFE1E2000F05AFE002402E7FDF76AFB64
:105600001E20FDF767FBFCE6AC78E12034B100F02A
:105610004DFE1F2000F04AFE0024F2E6FDF75AFB83
:105620001F20FDF757FBECE6AC78E12034B100F029
:105630003DFE202000F03AFE0024E2E6FDF74AFBA2
:105640002020FDF747FBDCE60C130020640C002053
:1056500030390020F012002002130020AC78E12045
:1056600034B100F023FE212000F020FE0024C8E623
:10567000FDF730FB2120FDF72DFBC2E6AC78E120E1
:1056800034B100F013FE222000F010FE0024B8E632
:10569000FDF720FB2220FDF71DFBB2E6AC78E120F0
:1056A00034B100F003FE232000F000FE0024A8E641
:1056B000FDF710FB2320FDF70DFBA2E6AC78E120FF
:1056C00034B100F0F3FD242000F0F0FD002498E652
:1056D000FDF700FB2420FDF7FDFA92E6AC78E1200F
:1056E00034B100F0E3FD252000F0E0FD002488E661
:1056F000FDF7F0FA2520FDF7EDFA82E6AC78E1201F
:1057000034B100F0D3FD262000F0D0FD002478E66F
:10571000FDF7E0FA2620FDF7DDFA72E6AC78E1202D
:1057200034B100F0C3FD2D2000F0C0FD002468E678
:10573000FDF7D0FA2D20FDF7CDFA62E6AC78E12036
:1057400034B100F0B3FD2E2000F0B0FD002458E687
:10575000FDF7C0FA2E20FDF7BDFA52E6AC78E12045
:1057600034B100F0A3FD2F2000F0A0FD002448E696
:10577000FDF7B0FA2F20FDF7ADFA42E6AC78E12054
:1057800034B100F093FD302000F090FD002438E6A5
:10579000FDF7A0FA3020FDF79DFA32E6AC78E12063
:1057A00034B100F083FD312000F080FD002428E6B4
:1057B000FDF790FA3120FDF78DFA22E6AC78E12072
:1057C00034B100F073FD332000F070FD002418E6C2
:1057D000FDF780FA3320FDF77DFA12E6AC78E12080
:1057E00034B100F063FD342000F060FD002408E6D1
:1057F000FDF770FA3420FDF76DFA02E6AC78E1208F
:1058000034B100F053FD362000F050FD0024F8E5DF
:10581000FDF760FA3620FDF75DFAF2E5AC78E1209D
:1058200034B100F043FD372000F040FD0024E8E5EE
:10583000FDF750FA3720FDF74DFAE2E5AC78E120AC
:1058400034B100F033FD382000F030FD0024D8E5FD
:10585000FDF740FA3820FDF73DFAD2E5AC78E020BC
:1058600054B100F023FD1B2000F020FD4FF4FA603E
:1058700008F009F80024C4E5FDF72CFA1B20FDF719
:1058800029FABEE5AC78E02054B100F00FFD062007
:1058900000F00CFD4FF4FA6007F0F5FF0024B0E5CE
:1058A000FDF718FA0620FDF715FAAAE5AC78E02016
:1058B00054B100F0FBFC192000F0F8FC4FF4FA6042
:1058C00007F0E1FF00249CE5FDF704FA1920FDF73D
:1058D00001FA96E5AC78002C7FF492ADB54F3B7899
:1058E00013B100233B708CE5B34D287800F0DDFD4B
:1058F000032816D0287800F0D8FD061F70427041AA
:10590000DFF8B882AE4E88F80000287800F0CDFDB0
:1059100048B998F80050C5B9012000F037FD284675
:1059200017E00120ECE7287800F0BFFD0328F0D055
:1059300098F80050C5B1032000F028FD002001F0C8
:105940000EF933786FF3041308E0042000F01EFD15
:10595000002001F004F9337843F0100333703B78F2
:10596000002B3FF44DADBCE7284600F00FFD284664
:10597000E5E7FEF779FF044600287FF441ADAB78F8
:105980000BB901243DE58F4B1B78012BF9D1FEF7B4
:105990000FFC0028F5D16E2318201A461946FCF793
:1059A000CDFB022296211820FCF70CFC1820FCF7F6
:1059B000A3FB26E5FEF758FF044600287FF420AD40
:1059C000AB78002BDDD07F4B1D78022DD9D1FEF7AF
:1059D000EFFB0028D5D16E2319201A461946FCF793
:1059E000ADFB2A4696211920FCF7ECFB1920FCF7A9
:1059F00083FB06E5FEF738FF044600287FF400AD80
:105A0000AB78002BBDD06F4B1B78032BB9D1FEF7C1
:105A1000CFFB0028B5D16E231A201A461946FCF791
:105A20008DFB022296211A20FCF7CCFB1A20FCF7F2
:105A300063FBE6E4FEF718FF044600287FF4E0ACC1
:105A4000AB78002B9DD05F4B1B78002B99D1FEF7D4
:105A5000AFFB002895D16E2317201A461946FCF794
:105A60006DFB022296211720FCF7ACFB1720FCF7F8
:105A700043FBC6E4FEF7F8FE044600287FF4C0AC02
:105A8000AB78002B3FF47DAF4E4B1B78062B7FF499
:105A900078AFFEF78DFB00287FF473AF6E231B20D9
:105AA0001A461946FCF74AFB022296211B20FCF7F6
:105AB00089FB1B20FCF720FBA3E4AC78002C3FF40F
:105AC00060AF00236E211A46FF20FCF737FB01214F
:105AD000FF20FCF74BFBFF20FCF70EFB91E4364C5C
